:100000000C9475000C949D000C949D000C949D0024
:100010000C949D000C949D000C949D000C949D00EC
:100020000C949D000C949D000C949D000C949D00DC
:100030000C949D000C949D000C949D000C949D00CC
:100040000C9469020C949D000C9437020C941102DC
:100050000C949D000C949D000C949D000C949D00AC
:100060000C949D000C949D002B2D2D2D2D2D2D2DB0
:100070002D2D2D2D2D2D2D2D2D2D2D2D2D2D2D2DB0
:100080002D2D2D2D2D2D2D2D2D2D2D2D2D2D2D2DA0
:100090002D2D2D2D2D2D2D2D2D2D2D2D2D2D2D2D90
:1000A0002D2D2D2D2D2D2D2D2D2D2D2D2D2D2D2D80
:1000B0002D2D2D2D2D2D2D2D2D2D2D2D2D2D2D2D70
:1000C0002D2D2D2D2D2D2D2D2D2B002040200020D0
:1000D000232000203D2000202B2000202D20002068
:1000E0002720002020200000B30211241FBECFEFE4
:1000F000D8E0DEBFCDBF11E0A0E0B1E0E6E8FDE072
:1001000002C005900D92A833B107D9F722E0A8E309
:10011000B1E001C01D92A53EB207E1F710E0C5E7CE
:10012000D0E004C02197FE010E94BB06C437D1076E
:10013000C9F70E94EE020C94C1060C940000DC0189
:10014000862FEEEDF2E063810E948706292FA80F2B
:10015000B11D8C9190E03281239F202D112402C08B
:10016000959587952A95E2F7948189230895AF9212
:10017000BF92CF92DF92EF92FF920F931F93CF9394
:10018000DF936C017B018B01040F151FEB015E01F6
:10019000AE18BF08C017D10759F06991D601ED918B
:1001A000FC910190F081E02DC6010995892B79F72A
:1001B000C501DF91CF911F910F91FF90EF90DF90DC
:1001C000CF90BF90AF900895FC01538D448D252FA3
:1001D00030E0842F90E0821B930B541710F0CF96E1
:1001E000089501970895FC01918D828D981761F013
:1001F000A28DAE0FBF2FB11D5D968C91928D9F5F2A
:100200009F73928F90E008958FEF9FEF0895FC0108
:10021000918D828D981731F0828DE80FF11D858DBB
:1002200090E008958FEF9FEF0895FC01918D228D4E
:10023000892F90E0805C9F4F821B91098F739927D3
:10024000089581E491E00E94150121E0892B09F4D1
:1002500020E0822F089580E090E0892B29F00E9411
:10026000210181110C9400000895FC01A48DA80FB8
:10027000B92FB11DA35ABF4F2C91848D90E00196E8
:100280008F739927848FA689B7892C93A089B18908
:100290008C91837080648C93938D848D981306C0A9
:1002A0000288F389E02D80818F7D80830895EF920D
:1002B000FF920F931F93CF93DF93EC0181E0888F20
:1002C0009B8D8C8D98131AC0E889F989808185FFF0
:1002D00015C09FB7F894EE89FF896083E889F98992
:1002E00080818370806480839FBF81E090E0DF9194
:1002F000CF911F910F91FF90EF900895F62E0B8DE7
:1003000010E00F5F1F4F0F731127E02E8C8D8E11A1
:100310000CC00FB607FCFACFE889F989808185FF08
:10032000F5CFCE010E943501F1CFEB8DEC0FFD2F03
:10033000F11DE35AFF4FF0829FB7F8940B8FEA89C3
:10034000FB8980818062CFCF0F931F93CF93DF9380
:100350008C01D0E0C0E0F801EC0FFD1F6491662332
:1003600041F081E491E00E945701892B11F0219620
:10037000F2CFCE01DF91CF911F910F910895CF93CE
:10038000DF93EC01888D8823B9F0AA89BB89E889BD
:10039000F9898C9185FD03C0808186FD0DC00FB663
:1003A00007FCF7CF8C9185FFF2CF808185FFEDCFE1
:1003B000CE010E943501E9CFDF91CF9108953FB77B
:1003C000F89480913D0190913E01A0913F01B09140
:1003D000400126B5A89B05C02F3F19F00196A11D2D
:1003E000B11D3FBFBA2FA92F982F8827BC01CD017F
:1003F000620F711D811D911D42E0660F771F881FDE
:10040000991F4A95D1F70895FC0101900020E9F762
:100410003197AF01481B590BBC0181E491E00C946A
:10042000B7001F920F920FB60F9211242F933F9394
:100430004F935F936F937F938F939F93AF93BF93EC
:10044000EF93FF9381E491E00E943501FF91EF91DA
:10045000BF91AF919F918F917F916F915F914F91DC
:100460003F912F910F900FBE0F901F9018951F92E4
:100470000F920FB60F9211242F938F939F93EF93A8
:10048000FF93E0915101F09152018081E091570179
:10049000F091580182FD1BC0908180915A018F5FBD
:1004A0008F7320915B01821741F0E0915A01F0E0D7
:1004B000EF5BFE4F958F80935A01FF91EF919F91D3
:1004C0008F912F910F900FBE0F901F9018958081E4
:1004D000F4CF1F920F920FB60F9211242F933F93D8
:1004E0008F939F93AF93BF938091390190913A017D
:1004F000A0913B01B0913C013091380123E0230FE2
:100500002D3758F50196A11DB11D20933801809318
:10051000390190933A01A0933B01B0933C01809143
:100520003D0190913E01A0913F01B09140010196A3
:10053000A11DB11D80933D0190933E01A0933F0109
:10054000B0934001BF91AF919F918F913F912F91B7
:100550000F900FBE0F901F90189526E8230F02965C
:10056000A11DB11DD2CFE1E4F1E01382128288EE29
:1005700093E0A0E0B0E084839583A683B78388E00E
:1005800091E09183808385EC90E09587848784EC6B
:1005900090E09787868780EC90E0918B808B81EC50
:1005A00090E0938B828B82EC90E0958B848B86EC31
:1005B00090E0978B868B118E128E138E148EEEED3B
:1005C000F2E01182108282E0828384E0838383E000
:1005D00084838EED91E0968385830895CF93DF9396
:1005E000CDB7DEB7E1970FB6F894DEBF0FBECDBF33
:1005F000789484B5826084BD84B5816084BD85B5FE
:10060000826085BD85B5816085BD80916E00816009
:1006100080936E00109281008091810082608093AF
:1006200081008091810081608093810080918000B1
:100630008160809380008091B10084608093B100DC
:100640008091B00081608093B00080917A008460D6
:1006500080937A0080917A00826080937A00809102
:100660007A00816080937A0080917A00806880931C
:100670007A001092C100E0915101F091520182E0A4
:100680008083E0914D01F0914E011082E0914F0185
:10069000F091500180E1808310925901E091550161
:1006A000F091560186E08083E0915301F09154016E
:1006B000808180618083E0915301F09154018081B9
:1006C00088608083E0915301F091540180818068BB
:1006D0008083E0915301F091540180818F7D80836C
:1006E0008EE191E00E94040282E391E00E94040204
:1006F00061E070E080E090E00E941B06C090E102A3
:10070000CC0CCC0CCC0C0EED12E02EEDE22E21E048
:10071000F22E32E0832E912CA12CB12CD12CCD14B1
:1007200089F10E94CC05A50194010E942406462F60
:100730006091E1028D2D0E9487065091E202609146
:10074000E002969F602D1124F701E80FF11D252F7F
:10075000062E01C0220F0A94EAF7209580812823F3
:100760005423852F01C0880F6A95EAF7282B208330
:1007700086E191E0442311F08AE191E00E940402B5
:10078000D394CDCF82E391E00E94040228E0E20EF0
:10079000F11C0E151F0511F682E391E00E94040280
:1007A00088E690E00E94A40182E391E00E940402A6
:1007B0002091DE023091DF0250E040E019A28E016C
:1007C0000F5D1F4FCA01B9012AE030E040E050E060
:1007D0000E945606605DF80162938F012115310574
:1007E0004105510579F7309719F0CF010E940402B5
:1007F00082E391E00E94040288E690E00E94A40156
:1008000082E391E00E940402C090E102CC0CCC0C87
:10081000CC0C0EED11E085E391E00E940402D12C96
:10082000CD1441F16D2DC8010E949F008230C9F0A6
:1008300038F4882369F0813089F08BEC90E00AC0AD
:100840008430A9F088F08530C1F78FEC90E002C0C9
:1008500083EE90E00E94A401D394E2CF8FED90E06C
:10086000F9CF8BED90E0F6CF87ED90E0F3CF83EDFD
:1008700090E0F0CF85E391E00E94040282E391E0F2
:100880000E940402085F1F4FE016F10621F68091D6
:10089000E3029091E40228E0FC01DE0192960190CF
:1008A0000D922A95E1F7FC01E850FF4F88E0DE0148
:1008B0009A9601900D928A95E1F7912C812CD12C7A
:1008C000C12C0091E3021091E402F60193E0EE0FD7
:1008D000FF1F9A95E1F7E00FF11F88E0DE01119606
:1008E00001900D928A95E1F7FFE1CF16D10409F44A
:1008F00089C0C4010896080F191F7090E102770C97
:10090000770C770CBB24BA94B70C6B2DCE018A966A
:100910000E949F00A82E6B2DCE0101960E949F0081
:1009200021E0A11001C020E091E0811101C090E020
:10093000422E490E6B2DC8010E949F0091E081114B
:1009400001C090E0490E60E0CE018A960E949F00AF
:10095000A82E60E0CE0101960E949F0021E0A11028
:1009600001C020E091E0811101C090E0522E590EAB
:1009700060E0C8010E949F0091E0811101C090E0F9
:10098000590EB12CA12C272C312CA214B3040CF03D
:1009900069C02FEFA21AB20AC501B1010E949306E5
:1009A000782E682FCE018A960E949F00682E672DB0
:1009B000CE0101960E949F0091E0611001C090E07D
:1009C00066246394811101C0612C690E672DC801F2
:1009D0000E949F0091E0811101C090E0690E772490
:1009E0007A947A0C672DCE0101960E949F00509157
:1009F000E202962D950D940D933049F0943031F02C
:100A000080E006C08E010E5D1F4F77CF81118F5F92
:100A1000452F851708F4482FE091E302F091E40296
:100A20006091E102872D0E9487062091E002929F4B
:100A3000902D11249401280F311DE20FF31F252F53
:100A4000092E01C0220F0A94EAF7209580812823FD
:100A5000452301C0440F9A95EAF7242B2083452CA7
:100A6000562C93CF88E0FE013196DE019A960190D4
:100A70000D928A95E1F78FEFC81AD80A98E0890E8F
:100A8000911CE0E2CE16D10409F01BCF8091DE026A
:100A90009091DF0201969093DF028093DE020E9424
:100AA000DF014B015C0184E6482E512C612C712C36
:100AB0000E94DF01681979098A099B09683E734021
:100AC00081059105A8F3F1E04F1A510861087108FA
:100AD00028EE820E23E0921EA11CB11C4114510489
:100AE0006104710429F780E090E0892B09F458CE65
:100AF0000E942101882309F453CE0E94000050CEA9
:100B00008F929F92AF92BF92CF92DF92EF92FF921D
:100B1000CF93DF93EC01688179818A819B81611594
:100B200071058105910521F464E279ED8BE597E08B
:100B30002DE133EF41E050E00E94240649015A01C3
:100B40009B01AC01A7EAB1E40E9443066B017C0162
:100B5000ACEEB4EFA50194010E945106C60ED71E5B
:100B6000E81EF91EF7FE06C081E0C81AD108E108A8
:100B700080E8F80AC882D982EA82FB82C701B601FE
:100B80009F77DF91CF91FF90EF90DF90CF90BF9054
:100B9000AF909F908F9008958F929F92AF92BF9247
:100BA000CF92DF92EF92FF9260910001709101016C
:100BB00080910201909103016115710581059105F4
:100BC00021F464E279ED8BE597E02DE133EF41E02C
:100BD00050E00E94240649015A019B01AC01A7EA9A
:100BE000B1E40E9443066B017C01ACEEB4EFA501B9
:100BF00094010E945106C60ED71EE81EF91EF7FE8C
:100C000006C081E0C81AD108E10880E8F80AC0925D
:100C10000001D0920101E0920201F0920301C701AC
:100C2000B6019F77FF90EF90DF90CF90BF90AF908D
:100C30009F908F90089560930001709301018093BD
:100C40000201909303010895052E97FB1EF4009472
:100C50000E943B0657FD07D00E94560607FC03D0B2
:100C60004EF40C943B0650954095309521953F4F9E
:100C70004F4F5F4F089590958095709561957F4F88
:100C80008F4F9F4F08950E947806A59F900DB49FA7
:100C9000900DA49F800D911D11240895B7FF0C9411
:100CA00043060E944306821B930B0895A1E21A2E6D
:100CB000AA1BBB1BFD010DC0AA1FBB1FEE1FFF1F00
:100CC000A217B307E407F50720F0A21BB30BE40B50
:100CD000F50B661F771F881F991F1A9469F7609597
:100CE0007095809590959B01AC01BD01CF01089551
:100CF000A29FB001B39FC001A39F700D811D11245D
:100D0000911DB29F700D811D1124911D0895991B95
:100D100079E004C0991F961708F0961B881F7A95F2
:100D2000C9F78095089597FB072E16F4009407D015
:100D300077FD09D00E94A70607FC05D03EF49095E8
:100D400081959F4F0895709561957F4F0895AA1BD7
:100D5000BB1B51E107C0AA1FBB1FA617B70710F0A6
:100D6000A61BB70B881F991F5A95A9F780959095D8
:100D7000BC01CD010895EE0FFF1F0590F491E02D09
:060D80000994F894FFCF76
:100D860001000000000000005701B700E400BF01A9
:100D96001501F30007012020200020272000436FC3
:100DA6006E7761792047656E65726174696F6E73DF
:080DB60021000D0A007C000081
:00000001FF
