:100000000C9483000C94AB000C94AB000C94AB00EC
:100010000C94AB000C94AB000C94AB000C94AB00B4
:100020000C94AB000C94AB000C94AB000C94AB00A4
:100030000C94AB000C94AB000C94AB000C94AB0094
:100040000C9471020C94AB000C943F020C941902B6
:100050000C94AB000C94AB000C94AB000C94AB0074
:100060000C94AB000C94AB002B2D2D2D2D2D2D2D94
:100070002D2D2D2D2D2D2D2D2D2D2D2D2D2D2D2DB0
:100080002D2D2D2D2D2D2D2D2D2D2D2D2D2D2D2DA0
:100090002D2D2D2D2D2D2D2D2D2D2D2D2D2D2D2D90
:1000A0002D2D2D2D2D2D2D2D2D2D2D2D2D2D2D2D80
:1000B0002D2D2D2D2D2D2D2D2D2D2D2D2D2D2D2D70
:1000C0002D2D2D2D2D2D2D2D2D2B002040200020D0
:1000D000232000203D2000202B2000202D20002068
:1000E0002720002020200020402000202320002066
:1000F0003D2000202B2000202D2000202720002044
:1001000020200000BB0211241FBECFEFD8E0DEBFCD
:10011000CDBF11E0A0E0B1E0E4EEFCE002C005904C
:100120000D92A833B107D9F723E0A8E3B1E001C0ED
:100130001D92A23EB207E1F710E0C3E8D0E004C090
:100140002197FE010E946A06C238D107C9F70E94B2
:10015000F0020C9470060C940000AF92BF92CF9204
:10016000DF92EF92FF920F931F93CF93DF936C0177
:100170007B018B01040F151FEB015E01AE18BF0858
:10018000C017D10759F06991D601ED91FC9101900A
:10019000F081E02DC6010995892B79F7C501DF9122
:1001A000CF911F910F91FF90EF90DF90CF90BF9074
:1001B000AF900895FC01538D448D252F30E0842F9E
:1001C00090E0821B930B541710F0CF96089501977F
:1001D0000895FC01918D828D981761F0A28DAE0F6C
:1001E000BF2FB11D5D968C91928D9F5F9F73928FF3
:1001F00090E008958FEF9FEF0895FC01918D828D1F
:10020000981731F0828DE80FF11D858D90E00895EB
:100210008FEF9FEF0895FC01918D228D892F90E043
:10022000805C9F4F821B91098F739927089581E409
:1002300091E00E940B0121E0892B09F420E0822F3C
:10024000089580E090E0892B29F00E941701811128
:100250000C9400000895FC01A48DA80FB92FB11DC6
:10026000A35ABF4F2C91848D90E001968F739927EC
:10027000848FA689B7892C93A089B1898C918370CA
:1002800080648C93938D848D981306C00288F389C3
:10029000E02D80818F7D80830895EF92FF920F93F0
:1002A0001F93CF93DF93EC0181E0888F9B8D8C8D22
:1002B00098131AC0E889F989808185FF15C09FB716
:1002C000F894EE89FF896083E889F98980818370D9
:1002D000806480839FBF81E090E0DF91CF911F9188
:1002E0000F91FF90EF900895F62E0B8D10E00F5FA9
:1002F0001F4F0F731127E02E8C8D8E110CC00FB67F
:1003000007FCFACFE889F989808185FFF5CFCE0116
:100310000E942B01F1CFEB8DEC0FFD2FF11DE35A65
:10032000FF4FF0829FB7F8940B8FEA89FB89808199
:100330008062CFCF0F931F93CF93DF938C01D0E0D8
:10034000C0E0F801EC0FFD1F6491662341F081E4E9
:1003500091E00E944D01892B11F02196F2CFCE0140
:10036000DF91CF911F910F910895CF93DF93EC010F
:10037000888D8823B9F0AA89BB89E889F9898C918D
:1003800085FD03C0808186FD0DC00FB607FCF7CF49
:100390008C9185FFF2CF808185FFEDCFCE010E9449
:1003A0002B01E9CFDF91CF9108953FB7F894809169
:1003B0003D0190913E01A0913F01B091400126B5D1
:1003C000A89B05C02F3F19F00196A11DB11D3FBF8D
:1003D000BA2FA92F982F8827BC01CD01620F711D5C
:1003E000811D911D42E0660F771F881F991F4A9556
:1003F000D1F70895262F2695820F911DFC0180814B
:1004000060FF82958F700895FC0101900020E9F74C
:100410003197AF01481B590BBC0181E491E00C946A
:10042000AD0088E690E00E949A0186E191E00C948C
:1004300004021F920F920FB60F9211242F933F9335
:100440004F935F936F937F938F939F93AF93BF93DC
:10045000EF93FF9381E491E00E942B01FF91EF91D4
:10046000BF91AF919F918F917F916F915F914F91CC
:100470003F912F910F900FBE0F901F9018951F92D4
:100480000F920FB60F9211242F938F939F93EF9398
:10049000FF93E0915101F09152018081E091570169
:1004A000F091580182FD1BC0908180915A018F5FAD
:1004B0008F7320915B01821741F0E0915A01F0E0C7
:1004C000EF5BFE4F958F80935A01FF91EF919F91C3
:1004D0008F912F910F900FBE0F901F9018958081D4
:1004E000F4CF1F920F920FB60F9211242F933F93C8
:1004F0008F939F93AF93BF938091390190913A016D
:10050000A0913B01B0913C013091380123E0230FD1
:100510002D3758F50196A11DB11D20933801809308
:10052000390190933A01A0933B01B0933C01809133
:100530003D0190913E01A0913F01B0914001019693
:10054000A11DB11D80933D0190933E01A0933F01F9
:10055000B0934001BF91AF919F918F913F912F91A7
:100560000F900FBE0F901F90189526E8230F02964C
:10057000A11DB11DD2CFE1E4F1E01382128288EE19
:1005800093E0A0E0B0E084839583A683B78388E0FE
:1005900091E09183808385EC90E09587848784EC5B
:1005A00090E09787868780EC90E0918B808B81EC40
:1005B00090E0938B828B82EC90E0958B848B86EC21
:1005C00090E0978B868B118E128E138E148EEEED2B
:1005D000F3E0118210828EED91E09383828308957F
:1005E000CF93DF93CDB7DEB7C154D1090FB6F894DE
:1005F000DEBF0FBECDBF789484B5826084BD84B564
:10060000816084BD85B5826085BD85B5816085BD0D
:1006100080916E00816080936E00109281008091C5
:10062000810082608093810080918100816080934D
:100630008100809180008160809380008091B10072
:1006400084608093B1008091B00081608093B0009D
:1006500080917A00846080937A0080917A00826031
:1006600080937A0080917A00816080937A008091F3
:100670007A00806880937A001092C100E091510165
:10068000F091520182E08083E0914D01F0914E01A2
:100690001082E0914F01F091500180E1808310922F
:1006A0005901E0915501F091560186E08083E09177
:1006B0005301F0915401808180618083E091530166
:1006C000F0915401808188608083E0915301F09122
:1006D0005401808180688083E0915301F09154013E
:1006E00080818F7D808381E291E00E94040286E117
:1006F00091E00E94040261E070E080E090E00E94DE
:10070000FE052EEDC22E23E0D22E3EEDE32E31E08B
:10071000F32E42E0842E912CA12CB12C10E000E0AD
:100720000E94AF05A50194010E940706F701E00FA2
:10073000F11F608389E191E0662311F08DE191E082
:100740000E9404020F5F1F4F0031110549F786E137
:1007500091E00E94040220E1E20EF11CCE14DF04BD
:10076000E9F686E191E00E9404020E9411022091C4
:10077000DE033091DF0350E040E019A28E010F5DEF
:100780001F4FCA01B9012AE030E040E050E00E946A
:100790003906605DF80162938F012115310541052D
:1007A000510579F7309719F0CF010E94040286E1D4
:1007B00091E00E9404020E9411020EED11E085E317
:1007C00091E00E940402D12CC12C5801AC0CBD1C3C
:1007D000F501808182958F70823031F138F4882361
:1007E00069F08130F1F087EE90E00AC0843011F1B9
:1007F000F0F08530C1F78BEE90E002C08FEF90E013
:100800000E949A01F50180818F70823009F4D9C06D
:10081000A0F48823E1F0813009F4D0C08BEC90E0A3
:1008200018C08BEF90E0ECCF87EF90E0E9CF83EF3B
:1008300090E0E6CF8FEE90E0E3CF843009F4C7C0BC
:1008400008F4C2C0853051F78FEC90E002C083EE0F
:1008500090E00E949A01FFEFCF1ADF0A20E1C21652
:10086000D10409F0B2CF85E391E00E94040286E151
:1008700091E00E940402005F1F4FE016F10609F0AC
:100880009ECF8091E0039091E10320E1FC01DE0125
:10089000929601900D922A95E1F7FC01E051FE4FEE
:1008A00080E1DE01D29601900D928A95E1F7912CBC
:1008B000812CD12CC12C0091E0031091E103F601B1
:1008C00094E0EE0FFF1F9A95E1F7E00FF11F80E132
:1008D000DE01119601900D928A95E1F74FE1C41661
:1008E000D10409F477C0C4014096080F191F22965D
:1008F0009FAD22979F7081E009F480E098899F70F6
:1009000021E009F420E0682E620E6FE1C8010E9428
:10091000FA0191E0811101C090E0690E8AA98295E7
:100920008F7022242394811101C0212C898182950A
:100930008F7091E009F490E0290E60E0C8010E94F8
:10094000FA0191E0811101C090E0290EB12CA12C97
:100950009FEFA91AB90A2501EFE14E225524642D13
:10096000CE01C2960E94FA01382E642DCE01019666
:100970000E94FA0121E0311001C020E091E08111D4
:1009800001C090E0722E790E642DC8010E94FA0118
:1009900091E0811101C090E0790E33243A943A0C31
:1009A000632DCE0101960E94FA01222D270D260DFE
:1009B0002330B1F0243091F080E016C08FED90E04C
:1009C00048CF8BED90E045CF87ED90E042CF83EDAF
:1009D00090E03FCF8E010E5D1F4F89CF882321F01D
:1009E0008F5F8F3008F06AC0E32DE695E80DF92D92
:1009F000F11D2091E0033091E103E20FF31F90819C
:100A000030FC5EC09F7040E1849F90011124922BC6
:100A10009083622C272C80E2A816B10409F098CFAD
:100A200080E1FE013196DE01D29601900D928A9509
:100A3000E1F78FEFC81AD80A90E1890E911CE0E225
:100A4000CE16D10409F037CF8091DE039091DF03F9
:100A500001969093DF038093DE030E94D5012B0162
:100A60003C0184E6882E912CA12CB12C0E94D5014A
:100A70006419750986099709683E734081059105D7
:100A8000A8F3F1E08F1A9108A108B10828EE420EF0
:100A900023E0521E611C711C81149104A104B10455
:100AA00029F780E090E0892B09F45FCE0E941701BE
:100AB000882309F45ACE0E94000057CE8FE094CFCD
:100AC000907F982BA5CF8F929F92AF92BF92CF929B
:100AD000DF92EF92FF92CF93DF93EC0168817981EF
:100AE0008A819B81611571058105910521F464E27C
:100AF00079ED8BE597E02DE133EF41E050E00E9486
:100B0000070649015A019B01AC01A7EAB1E40E9422
:100B100026066B017C01ACEEB4EFA50194010E94A6
:100B20003406C60ED71EE81EF91EF7FE06C081E089
:100B3000C81AD108E10880E8F80AC882D982EA8296
:100B4000FB82C701B6019F77DF91CF91FF90EF90B5
:100B5000DF90CF90BF90AF909F908F9008958F922D
:100B60009F92AF92BF92CF92DF92EF92FF926091ED
:100B700000017091010180910201909103016115C2
:100B800071058105910521F464E279ED8BE597E02B
:100B90002DE133EF41E050E00E94070649015A0180
:100BA0009B01AC01A7EAB1E40E9426066B017C011F
:100BB000ACEEB4EFA50194010E943406C60ED71E18
:100BC000E81EF91EF7FE06C081E0C81AD108E10848
:100BD00080E8F80AC0920001D0920101E09202017F
:100BE000F0920301C701B6019F77FF90EF90DF906D
:100BF000CF90BF90AF909F908F9008956093000129
:100C00007093010180930201909303010895052ED2
:100C100097FB1EF400940E941E0657FD07D00E9409
:100C2000390607FC03D04EF40C941E0650954095EF
:100C3000309521953F4F4F4F5F4F08959095809588
:100C4000709561957F4F8F4F9F4F08950E945B066F
:100C5000A59F900DB49F900DA49F800D911D112410
:100C60000895B7FF0C9426060E942606821B930B5C
:100C70000895A1E21A2EAA1BBB1BFD010DC0AA1FDD
:100C8000BB1FEE1FFF1FA217B307E407F50720F0F5
:100C9000A21BB30BE40BF50B661F771F881F991F70
:100CA0001A9469F760957095809590959B01AC01B9
:100CB000BD01CF010895A29FB001B39FC001A39FC2
:100CC000700D811D1124911DB29F700D811D112485
:100CD000911D0895EE0FFF1F0590F491E02D0994EA
:040CE000F894FFCFB6
:100CE40001000000000000004D01AD00DA00B50174
:100CF4000B01E900FD000D0A0020202000202D201A
:100D040000436F6E7761792047656E65726174691F
:080D14006F6E7321007C0000EA
:00000001FF
