:100000000C9475000C949D000C949D000C949D0024
:100010000C949D000C949D000C949D000C949D00EC
:100020000C949D000C949D000C949D000C949D00DC
:100030000C949D000C949D000C949D000C949D00CC
:100040000C9451020C949D000C941F020C94F90125
:100050000C949D000C949D000C949D000C949D00AC
:100060000C949D000C949D002B2D2D2D2D2D2D2DB0
:100070002D2D2D2D2D2D2D2D2D2D2D2D2D2D2D2DB0
:100080002D2D2D2D2D2D2D2D2D2D2D2D2D2D2D2DA0
:100090002D2D2D2D2D2D2D2D2D2D2D2D2D2D2D2D90
:1000A0002D2D2D2D2D2D2D2D2D2D2D2D2D2D2D2D80
:1000B0002D2D2D2D2D2D2D2D2D2D2D2D2D2D2D2D70
:1000C0002D2D2D2D2D2D2D2D2D2B002040200020D0
:1000D000232000203D2000202B2000202D20002068
:1000E00027200020202000009B0211241FBECFEFFC
:1000F000D8E0DEBFCDBF11E0A0E0B1E0E8E0FCE079
:1001000002C005900D92A033B107D9F725E0A0E316
:10011000B1E001C01D92AA3DB207E1F710E0C5E7CA
:10012000D0E004C02197FE010E94FC05C437D1072E
:10013000C9F70E94D0020C9402060C940000AF9202
:10014000BF92CF92DF92EF92FF920F931F93CF93C4
:10015000DF936C017B018B01040F151FEB015E0126
:10016000AE18BF08C017D10759F06991D601ED91BB
:10017000FC910190F081E02DC6010995892B79F75A
:10018000C501DF91CF911F910F91FF90EF90DF900C
:10019000CF90BF90AF900895FC01538D448D252FD3
:1001A00030E0842F90E0821B930B541710F0CF9611
:1001B000089501970895FC01918D828D981761F043
:1001C000A28DAE0FBF2FB11D5D968C91928D9F5F5A
:1001D0009F73928F90E008958FEF9FEF0895FC0139
:1001E000918D828D981731F0828DE80FF11D858DEC
:1001F00090E008958FEF9FEF0895FC01918D228D7F
:10020000892F90E0805C9F4F821B91098F73992703
:10021000089589E391E00E94FD0021E0892B09F413
:1002200020E0822F089580E090E0892B29F00E9441
:10023000090181110C9400000895FC01A48DA80F00
:10024000B92FB11DA35ABF4F2C91848D90E0019618
:100250008F739927848FA689B7892C93A089B18938
:100260008C91837080648C93938D848D981306C0D9
:100270000288F389E02D80818F7D80830895EF923D
:10028000FF920F931F93CF93DF93EC0181E0888F50
:100290009B8D8C8D98131AC0E889F989808185FF20
:1002A00015C09FB7F894EE89FF896083E889F989C2
:1002B00080818370806480839FBF81E090E0DF91C4
:1002C000CF911F910F91FF90EF900895F62E0B8D17
:1002D00010E00F5F1F4F0F731127E02E8C8D8E11D2
:1002E0000CC00FB607FCFACFE889F989808185FF39
:1002F000F5CFCE010E941D01F1CFEB8DEC0FFD2F4C
:10030000F11DE35AFF4FF0829FB7F8940B8FEA89F3
:10031000FB8980818062CFCF0F931F93CF93DF93B0
:100320008C01D0E0C0E0F801EC0FFD1F6491662362
:1003300041F089E391E00E943F01892B11F0219661
:10034000F2CFCE01DF91CF911F910F910895CF93FE
:10035000DF93EC01888D8823B9F0AA89BB89E889ED
:10036000F9898C9185FD03C0808186FD0DC00FB693
:1003700007FCF7CF8C9185FFF2CF808185FFEDCF11
:10038000CE010E941D01E9CFDF91CF9108953FB7C3
:10039000F8948091350190913601A0913701B09188
:1003A000380126B5A89B05C02F3F19F00196A11D65
:1003B000B11D3FBFBA2FA92F982F8827BC01CD01AF
:1003C000620F711D811D911D42E0660F771F881F0E
:1003D000991F4A95D1F70895FC0101900020E9F793
:1003E0003197AF01481B590BBC0189E391E00C9494
:1003F0009F001F920F920FB60F9211242F933F93DD
:100400004F935F936F937F938F939F93AF93BF931C
:10041000EF93FF9389E391E00E941D01FF91EF911B
:10042000BF91AF919F918F917F916F915F914F910C
:100430003F912F910F900FBE0F901F9018951F9214
:100440000F920FB60F9211242F938F939F93EF93D8
:10045000FF93E0914901F0914A018081E0914F01C1
:10046000F091500182FD1BC09081809152018F5FFD
:100470008F7320915301821741F0E0915201F0E017
:10048000E75CFE4F958F80935201FF91EF919F9112
:100490008F912F910F900FBE0F901F901895808114
:1004A000F4CF1F920F920FB60F9211242F933F9308
:1004B0008F939F93AF93BF938091310190913201BD
:1004C000A0913301B09134013091300123E0230F2A
:1004D0002D3758F50196A11DB11D20933001809351
:1004E000310190933201A0933301B0933401809194
:1004F000350190913601A0913701B09138010196F4
:10050000A11DB11D8093350190933601A093370151
:10051000B0933801BF91AF919F918F913F912F91EF
:100520000F900FBE0F901F90189526E8230F02968C
:10053000A11DB11DD2CFE9E3F1E01382128288EE52
:1005400093E0A0E0B0E084839583A683B78388E03E
:1005500091E09183808385EC90E09587848784EC9B
:1005600090E09787868780EC90E0918B808B81EC80
:1005700090E0938B828B82EC90E0958B848B86EC61
:1005800090E0978B868B118E128E138E148EE6ED73
:10059000F5E086ED91E093838283118210820895C5
:1005A000CF93DF93CDB7DEB7C156D1090FB6F8941C
:1005B000DEBF0FBECDBF789484B5826084BD84B5A4
:1005C000816084BD85B5826085BD85B5816085BD4E
:1005D00080916E00816080936E0010928100809106
:1005E000810082608093810080918100816080938E
:1005F0008100809180008160809380008091B100B3
:1006000084608093B1008091B00081608093B000DD
:1006100080917A00846080937A0080917A00826071
:1006200080937A0080917A00816080937A00809133
:100630007A00806880937A001092C100E0914901AD
:10064000F0914A0182E08083E0914501F0914601FA
:100650001082E0914701F091480180E1808310927F
:100660005101E0914D01F0914E0186E08083E091CF
:100670004B01F0914C01808180618083E0914B01BE
:10068000F0914C01808188608083E0914B01F09172
:100690004C01808180688083E0914B01F0914C0196
:1006A00080818F7D808386E191E00E94EC018AE267
:1006B00091E00E94EC0161E070E080E090E00E9437
:1006C000900581E080932003809340038093600332
:1006D00080935F0380933E03809356048093760457
:1006E000809396048093E0018093E1018093E2017E
:1006F0008AE291E00E94EC016AE0C62ED12CE12C46
:10070000F12C50E0252E50E0352E88E690E00E9436
:100710008C018AE291E00E94EC012091D605309193
:10072000D70550E040E019A28E010F5D1F4FCA01AE
:10073000B901A70196010E94CB05605DD8016E93B7
:100740008D01211531054105510589F7109719F0E3
:10075000CD010E94EC018AE291E00E94EC0188E662
:1007600090E00E948C018AE291E00E94EC0106ED8B
:1007700011E08DE291E00E94EC01B12CA12CF80176
:10078000EA0DFB1D8081823009F4CEC040F488233D
:1007900081F0813009F4C5C08BEC90E00CC084304E
:1007A00009F4C8C008F4C3C08530B1F78FEC90E0FD
:1007B00002C083EE90E00E948C01BFEFAB1ABB0A2F
:1007C000E0E2AE16B104D9F68DE291E00E94EC01B0
:1007D0008AE291E00E94EC01005E1F4F86ED95E0F9
:1007E0008017910731F68091D8059091D90520E2C4
:1007F000FC01DE01929601900D922A95E1F7FC0131
:10080000E052FC4F80E2DE01AE5BBF4F01900D92E3
:100810008A95E1F760E270E090E080E02091D805F1
:100820003091D9055C0145E0AA0CBB1C4A95E1F763
:10083000F901EA0DFB1D40E2DE01119601900D92D7
:100840004A95E1F7F901E60FF71F8F31910511F491
:10085000FE01B296B1E0A2962FADA297211101C080
:10086000B0E021E038A1311101C020E0B20F21E059
:10087000378D311101C020E05B2E520E21E023960E
:100880003FAD2397311101C020E077247394398163
:10089000311101C0712C720E21E03081311101C083
:1008A00020E0720E8E010F5F1F4F50E040E04A01C2
:1008B000AFEF8A1A9A0A94012F713327A2E4B0E0AD
:1008C000AC0FBD1FA20FB31F66246394AC91A1119E
:1008D00001C0612C44244394A1E0B0E0AC0FBD1FE3
:1008E000A20FB31FAC91A11101C0412C640C2E0FBB
:1008F0003F1F44244394D9012C91211101C0412C64
:10090000640CD8014D908D012091D8053091D90506
:10091000B62DB70DB50DB33091F0B43089F0412C40
:100920000FC08FED90E047CF8BED90E044CF87ED87
:1009300090E041CF83ED90E03ECF762CB8CF43944A
:100940002A0D3B1D420F531FDA014C92A401572C74
:100950004032510591F720E2FE013196DE01AE5B97
:10096000BF4F01900D922A95E1F70196605E7F4F8F
:100970008032910509F052CF8091D6059091D7052C
:1009800001969093D7058093D6050E94C7014B012D
:100990005C0184E6482E512C612C712C0E94C70109
:1009A000681979098A099B09683E73408105910598
:1009B000A8F3B1E04B1A510861087108E8EE8E0EF9
:1009C000E3E09E1EA11CB11C41145104610471049A
:1009D00029F72114310409F498CE0E9409018823D3
:1009E00009F48FCE0E9400008CCE8F929F92AF921E
:1009F000BF92CF92DF92EF92FF92CF93DF93EC0101
:100A0000688179818A819B816115710581059105D4
:100A100021F464E279ED8BE597E02DE133EF41E0DD
:100A200050E00E94990549015A019B01AC01A7EAD7
:100A3000B1E40E94B8056B017C01ACEEB4EFA501F6
:100A400094010E94C605C60ED71EE81EF91EF7FEC9
:100A500006C081E0C81AD108E10880E8F80AC88217
:100A6000D982EA82FB82C701B6019F77DF91CF91DD
:100A7000FF90EF90DF90CF90BF90AF909F908F90BE
:100A800008958F929F92AF92BF92CF92DF92EF9292
:100A9000FF9260910001709101018091020190919B
:100AA0000301611571058105910521F464E279ED79
:100AB0008BE597E02DE133EF41E050E00E9499058E
:100AC00049015A019B01AC01A7EAB1E40E94B805B3
:100AD0006B017C01ACEEB4EFA50194010E94C60548
:100AE000C60ED71EE81EF91EF7FE06C081E0C81A22
:100AF000D108E10880E8F80AC0920001D092010113
:100B0000E0920201F0920301C701B6019F77FF90C6
:100B1000EF90DF90CF90BF90AF909F908F9008950F
:100B2000609300017093010180930201909303018F
:100B30000895052E97FB1EF400940E94B00557FD02
:100B400007D00E94CB0507FC03D04EF40C94B005EF
:100B500050954095309521953F4F4F4F5F4F0895E9
:100B600090958095709561957F4F8F4F9F4F089519
:100B70000E94ED05A59F900DB49F900DA49F800D40
:100B8000911D11240895B7FF0C94B8050E94B80573
:100B9000821B930B0895A1E21A2EAA1BBB1BFD0119
:100BA0000DC0AA1FBB1FEE1FFF1FA217B307E4074C
:100BB000F50720F0A21BB30BE40BF50B661F771FA4
:100BC000881F991F1A9469F7609570958095909584
:100BD0009B01AC01BD01CF010895A29FB001B39F5D
:100BE000C001A39F700D811D1124911DB29F700D36
:100BF000811D1124911D0895EE0FFF1F0590F491A2
:080C0000E02D0994F894FFCFE8
:100C080001000000000000003F019F00CC00A70188
:100C1800FD00DB00EF00436F6E7761792047656E5A
:100C280065726174696F6E7321000D0A007C0000A3
:00000001FF
