:100000000C9467000C948F000C948F000C948F005C
:100010000C948F000C948F000C948F000C948F0024
:100020000C948F000C948F000C948F000C948F0014
:100030000C948F000C948F000C948F000C948F0004
:100040000C9447020C948F000C9415020C94EF0151
:100050000C948F000C948F000C948F000C948F00E4
:100060000C948F000C948F002B2D2D2D2D2D2D2DCC
:100070002D2D2D2D2D2D2D2D2D2D2D2D2D2D2D2DB0
:100080002D2D2D2D2D2D2D2D2D2D2D2D2D2D2D2DA0
:100090002D2D2D2D2D2D2D2D2D2D2D2D2D2D2D2D90
:1000A0002D2D2D2D2D2D2D2D2D2D2D2D2D2D2D2D80
:1000B0002D2D2D2D2D2D2D2D2D2D2D2D2D2D2D2D70
:1000C0002D2D2D2D2D2D2D2D2D2B000091021124A8
:1000D0001FBECFEFD8E0DEBFCDBF11E0A0E0B1E0A2
:1000E000E4E6FCE002C005900D92A834B107D9F710
:1000F00025E0A8E4B1E001C01D92A43FB207E1F7FA
:1001000010E0C7E6D0E004C02197FE010E9421065E
:10011000C636D107C9F70E94CA020C9430060C9467
:100120000000AF92BF92CF92DF92EF92FF920F93B7
:100130001F93CF93DF936C017B018B01040F151F7D
:10014000EB015E01AE18BF08C017D10759F06991E5
:10015000D601ED91FC910190F081E02DC601099549
:10016000892B79F7C501DF91CF911F910F91FF90F6
:10017000EF90DF90CF90BF90AF900895FC01538D2A
:10018000448D252F30E0842F90E0821B930B541771
:1001900010F0CF96089501970895FC01918D828DFE
:1001A000981761F0A28DAE0FBF2FB11D5D968C9197
:1001B000928D9F5F9F73928F90E008958FEF9FEFD6
:1001C0000895FC01918D828D981731F0828DE80F92
:1001D000F11D858D90E008958FEF9FEF0895FC014C
:1001E000918D228D892F90E0805C9F4F821B910919
:1001F0008F739927089581E591E00E94EF0021E037
:10020000892B09F420E0822F089580E090E0892B6B
:1002100029F00E94FB0081110C9400000895FC015C
:10022000A48DA80FB92FB11DA35ABF4F2C91848D57
:1002300090E001968F739927848FA689B7892C93B4
:10024000A089B1898C91837080648C93938D848D07
:10025000981306C00288F389E02D80818F7D80830A
:100260000895EF92FF920F931F93CF93DF93EC01CA
:1002700081E0888F9B8D8C8D98131AC0E889F9894D
:10028000808185FF15C09FB7F894EE89FF89608350
:10029000E889F98980818370806480839FBF81E0D1
:1002A00090E0DF91CF911F910F91FF90EF90089513
:1002B000F62E0B8D10E00F5F1F4F0F731127E02EEE
:1002C0008C8D8E110CC00FB607FCFACFE889F98926
:1002D000808185FFF5CFCE010E940F01F1CFEB8D1C
:1002E000EC0FFD2FF11DE35AFF4FF0829FB7F894FA
:1002F0000B8FEA89FB8980818062CFCFCF93DF9318
:10030000EC01888D8823B9F0AA89BB89E889F9892D
:100310008C9185FD03C0808186FD0DC00FB607FC62
:10032000F7CF8C9185FFF2CF808185FFEDCFCE0195
:100330000E940F01E9CFDF91CF9108953FB7F89464
:1003400080914D0190914E01A0914F01B0915001CB
:1003500026B5A89B05C02F3F19F00196A11DB11D20
:100360003FBFBA2FA92F982F8827BC01CD01620F5C
:10037000711D811D911D42E0660F771F881F991F17
:100380004A95D1F70895FC0101900020E9F73197D3
:10039000AF01481B590BBC0181E591E00C94910021
:1003A0000F931F93CF93DF93C8E6D0E08E010856DA
:1003B0001040FE016491662339F081E591E00E94CE
:1003C00031012196892B91F786E191E00E94C301CA
:1003D000800F911FDF91CF911F910F9108951F9270
:1003E0000F920FB60F9211242F933F934F935F9369
:1003F0006F937F938F939F93AF93BF93EF93FF93ED
:1004000081E591E00E940F01FF91EF91BF91AF91C3
:100410009F918F917F916F915F914F913F912F911C
:100420000F900FBE0F901F9018951F920F920FB64E
:100430000F9211242F938F939F93EF93FF93E0914B
:100440006101F09162018081E0916701F0916801A2
:1004500082FD1BC0908180916A018F5F8F73209114
:100460006B01821741F0E0916A01F0E0EF5AFE4F14
:10047000958F80936A01FF91EF919F918F912F91BA
:100480000F900FBE0F901F9018958081F4CF1F9290
:100490000F920FB60F9211242F933F938F939F9338
:1004A000AF93BF938091490190914A01A0914B0174
:1004B000B0914C013091480123E0230F2D3758F5BE
:1004C0000196A11DB11D209348018093490190938D
:1004D0004A01A0934B01B0934C0180914D01909142
:1004E0004E01A0914F01B09150010196A11DB11D87
:1004F00080934D0190934E01A0934F01B093500112
:10050000BF91AF919F918F913F912F910F900FBE0F
:100510000F901F90189526E8230F0296A11DB11D7C
:10052000D2CFE1E5F1E01382128288EE93E0A0E001
:10053000B0E084839583A683B78388E091E09183BC
:10054000808385EC90E09587848784EC90E09787A2
:10055000868780EC90E0918B808B81EC90E0938B90
:10056000828B82EC90E0958B848B86EC90E0978B6D
:10057000868B118E128E138E148EEEEEF5E08EEEBB
:1005800091E09383828380E290E09583848311825B
:1005900010820895CF93DF93CDB7DEB7C456D1094B
:1005A0000FB6F894DEBF0FBECDBF789484B58260DD
:1005B00084BD84B5816084BD85B5826085BD85B507
:1005C000816085BD80916E00816080936E00109285
:1005D0008100809181008260809381008091810000
:1005E0008160809381008091800081608093800091
:1005F0008091B10084608093B1008091B0008160EF
:100600008093B00080917A00846080937A0080911A
:100610007A00826080937A0080917A008160809372
:100620007A0080917A00806880937A001092C100ED
:10063000E0916101F091620182E08083E0915D01CF
:10064000F0915E011082E0915F01F091600180E124
:10065000808310926901E0916501F091660186E066
:100660008083E0916301F0916401808180618083E7
:10067000E0916301F0916401808188608083E09162
:100680006301F0916401808180688083E09163015F
:10069000F091640180818F7D808389E191E00E94E7
:1006A000C30186E191E00E94C30161E070E080E057
:1006B00090E00E94B50581E0809338038093580351
:1006C00080937803809377038093560380936E041E
:1006D00080938E048093AE048093F8018093F90197
:1006E0008093FA0186E191E00E94C3010E94D0014B
:1006F0002091EE053091EF0550E040E019A28E0107
:100700000F5D1F4FCA01B9012AE030E040E050E020
:100710000E94F005605DF80162938F01211531059B
:100720004105510579F7309719F0CF010E94C301B7
:1007300086E191E00E94C3010E94D0010EEE11E01B
:100740008DE291E00E94C301F12CE12CF801EE0D45
:10075000FF1D8081823009F403C140F4882371F0C9
:10076000813009F4FAC083E491E00AC0833009F4CF
:10077000FAC08430C1F78FE391E002C08FE291E0CC
:100780000E94C301FFEFEF1AFF0A20E2E216F10414
:10079000E9F68DE291E00E94C30186E191E00E94BA
:1007A000C301005E1F4F8EEE95E08017910741F662
:1007B000E090F205F090F3050091F0051091F1053D
:1007C000A701B801CE0182960E942706B8016052A7
:1007D0007C4FA701CE018E5B9F4F0E942706512CB4
:1007E000412C66246394712C10E000E0F12CE12C84
:1007F0006091F0057091F105640D751D4091F20551
:100800005091F305CE0101960E94270691E0A29631
:100810008FADA297811101C090E081E028A1211144
:1008200001C080E0980FA5969FAFA597DD24D394D3
:1008300022968FAD2297811101C0D12CCC24C39474
:1008400023968FAD2397811101C0C12CBB24B39493
:100850008AA1811101C0B12CFE013196A496FFAF8F
:10086000EEAFA49770E060E0430195E0880C991C1E
:100870009A95E1F7170125E0220C331C2A95E1F740
:10088000A496EEADFFADA4979191A496FFAFEEAF05
:10089000A4972091F0053091F105812F102F61155B
:1008A000710521F58D2DFFE1EF16F10441F081E096
:1008B000F901E80DF91D478D411101C080E0A596B1
:1008C0004FADA597840F11E0911101C010E01C0DF0
:1008D0004B2DEFE1EE16F10441F041E0F901E80D96
:1008E000F91D5081511101C040E0140FDB01119638
:1008F000AD014F715527E2E4F0E0EC0FFD1FE40F6E
:10090000F51FAA24A394E081E11101C0A12C01E00C
:10091000E1E0F0E0EC0FFD1FE40FF51FE081E111D5
:1009200001C000E00A0DFFE1EF16F104F9F4E2E284
:10093000F0E0EC0FFD1F4E0F5F1FAA24A394FA01F5
:100940004081411101C0A12C0A0D810F800F83301D
:1009500091F0843079F090E00FC083E391E010CF04
:1009600087E391E00DCF8BE391E00ACFF901E80D29
:10097000F91DE1CF91119F5F220D331D260F371F07
:10098000F9019083BD01909709F07ACFFFEFEF1A3C
:10099000FF0A4091F2055091F305BE016F5F7F4F52
:1009A000CE018E5B9F4F0E9427062FEF621A720ABC
:1009B00040E2440E511C80E2E816F10409F018CF21
:1009C0008091EE059091EF0501969093EF0580934D
:1009D000EE050E949E016B017C0188EC882E912C13
:1009E000A12CB12C0E949E016C197D098E099F09D2
:1009F000683E734081059105A8F391E0891A91083A
:100A0000A108B108E8EECE0EE3E0DE1EE11CF11C09
:100A100081149104A104B10429F780E090E0892BAE
:100A200009F464CE0E94FB00882309F45FCE0E9483
:100A300000005CCE8F929F92AF92BF92CF92DF92D6
:100A4000EF92FF92CF93DF93EC01688179818A81E5
:100A50009B81611571058105910521F464E279EDB1
:100A60008BE597E02DE133EF41E050E00E94BE05B9
:100A700049015A019B01AC01A7EAB1E40E94DD05DE
:100A80006B017C01ACEEB4EFA50194010E94EB0573
:100A9000C60ED71EE81EF91EF7FE06C081E0C81A72
:100AA000D108E10880E8F80AC882D982EA82FB828C
:100AB000C701B6019F77DF91CF91FF90EF90DF9054
:100AC000CF90BF90AF909F908F9008958F929F92FC
:100AD000AF92BF92CF92DF92EF92FF9260910001AE
:100AE00070910101809102019091030161157105DE
:100AF0008105910521F464E279ED8BE597E02DE124
:100B000033EF41E050E00E94BE0549015A019B01CC
:100B1000AC01A7EAB1E40E94DD056B017C01ACEEFB
:100B2000B4EFA50194010E94EB05C60ED71EE81E86
:100B3000F91EF7FE06C081E0C81AD108E10880E876
:100B4000F80AC0920001D0920101E0920201F092F5
:100B50000301C701B6019F77FF90EF90DF90CF9020
:100B6000BF90AF909F908F90089560930001709315
:100B7000010180930201909303010895052E97FBD4
:100B80001EF400940E94D50557FD07D00E94F00581
:100B900007FC03D04EF40C94D50550954095309544
:100BA00021953F4F4F4F5F4F0895909580957095D9
:100BB00061957F4F8F4F9F4F08950E941206A59F0A
:100BC000900DB49F900DA49F800D911D1124089548
:100BD000B7FF0C94DD050E94DD05821B930B089581
:100BE000A1E21A2EAA1BBB1BFD010DC0AA1FBB1F31
:100BF000EE1FFF1FA217B307E407F50720F0A21BA3
:100C0000B30BE40BF50B661F771F881F991F1A940F
:100C100069F760957095809590959B01AC01BD0139
:100C2000CF010895A29FB001B39FC001A39F700D93
:100C3000811D1124911DB29F700D811D1124911DE4
:100C40000895EE0FFF1F0590F491E02D0994FB012C
:100C5000DC0102C001900D9241505040D8F7089538
:040C6000F894FFCF36
:100C6400010000000000000031019100BE007E017F
:100C7400EF00CD00E1000D0A00436F6E776179202B
:100C840047656E65726174696F6E7321007C002024
:100C9400202000202D2000202B2000203D2000209B
:080CA400232000204020000085
:00000001FF
