:100000000C9435000C945D000C945D000C945D0024
:100010000C945D000C945D000C945D000C945D00EC
:100020000C945D000C945D000C945D000C945D00DC
:100030000C945D000C945D000C945D000C945D00CC
:100040000C94FA010C945D000C94C8010C94A2016C
:100050000C945D000C945D000C945D000C945D00AC
:100060000C945D000C945D00440211241FBECFEF80
:10007000D8E0DEBFCDBF11E0A0E0B1E0EEE6FBE0EE
:1000800002C005900D92A634B107D9F725E0A6E489
:10009000B1E001C01D92A03FB207E1F710E0C5E357
:1000A000D0E004C02197FE010E94AF05C433D10700
:1000B000C9F70E9479020C94B5050C940000AF9228
:1000C000BF92CF92DF92EF92FF920F931F93CF9345
:1000D000DF936C017B018B01040F151FEB015E01A7
:1000E000AE18BF08C017D10759F06991D601ED913C
:1000F000FC910190F081E02DC6010995892B79F7DB
:10010000C501DF91CF911F910F91FF90EF90DF908C
:10011000CF90BF90AF900895FC01538D448D252F53
:1001200030E0842F90E0821B930B541710F0CF9691
:10013000089501970895FC01918D828D981761F0C3
:10014000A28DAE0FBF2FB11D5D968C91928D9F5FDA
:100150009F73928F90E008958FEF9FEF0895FC01B9
:10016000918D828D981731F0828DE80FF11D858D6C
:1001700090E008958FEF9FEF0895FC01918D228DFF
:10018000892F90E0805C9F4F821B91098F73992784
:1001900008958FE491E00E94BD0021E0892B09F4CD
:1001A00020E0822F089580E090E0892B29F00E94C2
:1001B000C90081110C9400000895FC01A48DA80FC2
:1001C000B92FB11DA35ABF4F2C91848D90E0019699
:1001D0008F739927848FA689B7892C93A089B189B9
:1001E0008C91837080648C93938D848D981306C05A
:1001F0000288F389E02D80818F7D80830895EF92BE
:10020000FF920F931F93CF93DF93EC0181E0888FD0
:100210009B8D8C8D98131AC0E889F989808185FFA0
:1002200015C09FB7F894EE89FF896083E889F98942
:1002300080818370806480839FBF81E090E0DF9144
:10024000CF911F910F91FF90EF900895F62E0B8D97
:1002500010E00F5F1F4F0F731127E02E8C8D8E1152
:100260000CC00FB607FCFACFE889F989808185FFB9
:10027000F5CFCE010E94DD00F1CFEB8DEC0FFD2F0D
:10028000F11DE35AFF4FF0829FB7F8940B8FEA8974
:10029000FB8980818062CFCFCF93DF93EC01888D83
:1002A0008823B9F0AA89BB89E889F9898C9185FDF1
:1002B00003C0808186FD0DC00FB607FCF7CF8C917F
:1002C00085FFF2CF808185FFEDCFCE010E94DD005A
:1002D000E9CFDF91CF9108953FB7F89480914B011A
:1002E00090914C01A0914D01B0914E0126B5A89B73
:1002F00005C02F3F19F00196A11DB11D3FBFBA2FB8
:10030000A92F982F8827BC01CD01620F711D811D77
:10031000911D42E0660F771F881F991F4A95D1F7FC
:100320000895FC0101900020E9F73197AF01481BC7
:10033000590BBC018FE491E00C945F0086E191E0E1
:100340000C9491011F920F920FB60F9211242F93CC
:100350003F934F935F936F937F938F939F93AF934D
:10036000BF93EF93FF938FE491E00E94DD00FF9134
:10037000EF91BF91AF919F918F917F916F915F911D
:100380004F913F912F910F900FBE0F901F90189596
:100390001F920F920FB60F9211242F938F939F935A
:1003A000EF93FF93E0915F01F09160018081E09114
:1003B0006501F091660182FD1BC09081809168010A
:1003C0008F5F8F7320916901821741F0E09168017E
:1003D000F0E0E15BFE4F958F80936801FF91EF9114
:1003E0009F918F912F910F900FBE0F901F90189596
:1003F0008081F4CF1F920F920FB60F9211242F938A
:100400003F938F939F93AF93BF93809147019091B8
:100410004801A0914901B0914A013091460123E081
:10042000230F2D3758F50196A11DB11D20934601CC
:100430008093470190934801A0934901B0934A01EA
:1004400080914B0190914C01A0914D01B0914E01D2
:100450000196A11DB11D80934B0190934C01A09377
:100460004D01B0934E01BF91AF919F918F913F91FC
:100470002F910F900FBE0F901F90189526E8230F15
:100480000296A11DB11DD2CFEFE4F1E013821282DA
:1004900088EE93E0A0E0B0E084839583A683B783E1
:1004A00088E091E09183808385EC90E09587848754
:1004B00084EC90E09787868780EC90E0918B808B2E
:1004C00081EC90E0938B828B82EC90E0958B848B17
:1004D00086EC90E0978B868B118E128E138E148E85
:1004E000ECEEF5E08CEE91E0938382831182108232
:1004F0000895CF93DF93CDB7DEB7C156D1090FB6BC
:10050000F894DEBF0FBECDBF789484B5826084BD01
:1005100084B5816084BD85B5826085BD85B5816007
:1005200085BD80916E00816080936E001092810085
:100530008091810082608093810080918100816040
:100540008093810080918000816080938000809101
:10055000B10084608093B1008091B000816080938D
:10056000B00080917A00846080937A0080917A0054
:10057000826080937A0080917A00816080937A0013
:1005800080917A00806880937A001092C100E09197
:100590005F01F091600182E08083E0915B01F09166
:1005A0005C011082E0915D01F0915E0180E1808349
:1005B00010926701E0916301F091640186E080830D
:1005C000E0916101F0916201808180618083E0911E
:1005D0006101F0916201808188608083E091610116
:1005E000F0916201808180688083E0916101F091E7
:1005F000620180818F7D808381E291E00E94910180
:100600000E949E0161E070E080E090E00E9443055E
:10061000FCEECF2EF5E0DF2E0CEE11E0A2E08A2EEC
:10062000912CA12CB12CF12CE12C0E94F404A501F9
:1006300094010E944C05F801EE0DFF1D608389E1D5
:1006400091E0662311F08DE191E00E9491012FEF7E
:10065000E21AF20A60E2E616F10439F70E949E01FE
:10066000005E1F4FC016D106F1F60E949E018091D8
:10067000EE059091EF0520E2FC01DE0191960190DC
:100680000D922A95E1F7FC01E052FC4F80E2DE0179
:10069000AF5BBF4F01900D928A95E1F7CC24C394D4
:1006A000D12C812C712C30E020E0E091EE05F0910E
:1006B000EF05790175E0EE0CFF1C7A95E1F7EE0D80
:1006C000FF1D80E2DE01119601900D928A95E1F7FF
:1006D00061E0A2966FAFA297A1968FADA19781110D
:1006E00003C0A2961FAEA2973324339421968FADF8
:1006F0002197811101C0312C4424439422968FAD5F
:100700002297811101C0412C5524539489A1811154
:1007100001C0512C50E040E0F60165E0EE0FFF1FF4
:100720006A95E1F78091EE059091EF055C01AE0CC2
:10073000BF1CB501640F751FDB019C90682C872CD2
:100740004115510569F561E0D5015F967C91711104
:1007500001C060E0A296BFADA2976B0F732D2F3141
:10076000310549F071E0DC01AE0FBF1F5F96AC911F
:10077000A11101C070E0672E660E61E0911001C00A
:1007800060E0640D752D2F31310541F071E0DC0121
:10079000AE0FBF1FAC91A11101C070E0872E860E75
:1007A0005A016FEFA61AB60AB5016F717727A1E457
:1007B000B0E0AC0FBD1FA60FB71F77247394AC91A8
:1007C000A11101C0712CDC01AE0DBF1DA60FB71F1A
:1007D00022242394AC91A11101C0212C270C2F318C
:1007E0003105B9F4A1E2B0E0AC0FBD1F6A0F7B1F69
:1007F00077247394DB016C91611101C0712C720C30
:10080000680C662D670D633069F0643051F0912CEF
:100810000AC0DC01AE0FBF1FA60FB71F7724739469
:10082000EACF911093948E0D9F1D840F951FDC01CC
:100830009C92A5014032510509F074CF2F5F3F4FC4
:1008400080E2FE013196DE01AF5BBF4F01900D9259
:100850008A95E1F7BFEFCB1ADB0A2032310509F0A8
:1008600024CF8091EC059091ED0501969093ED05D4
:100870008093EC059CEEE92E91E0F92ED12CC12C51
:10088000F701EC0DFD1D8081823009F45BC040F45E
:10089000882371F0813009F452C081E491E00AC0EC
:1008A000833009F452C08430C1F78DE391E002C077
:1008B00089E191E00E9491012FEFC21AD20A60E211
:1008C000C616D104E9F60E949E0170E2E70EF11C03
:1008D0000E151F0599F60E949E010E946C016B0186
:1008E0007C0184EF882E99249394A12CB12C0E9432
:1008F0006C016C197D098E099F09683E7340810562
:100900009105A8F381E0881A9108A108B108A8EE22
:10091000CA0EA3E0DA1EE11CF11C81149104A104AB
:10092000B10429F780E090E0892B09F4A0CE0E9461
:10093000C900882309F49BCE0E94000098CE8DE167
:1009400091E0B8CF85E391E0B5CF89E391E0B2CFF4
:100950008F929F92AF92BF92CF92DF92EF92FF92CF
:10096000CF93DF93EC01688179818A819B81611546
:1009700071058105910521F464E279ED8BE597E03D
:100980002DE133EF41E050E00E944C0549015A014E
:100990009B01AC01A7EAB1E40E946B056B017C01ED
:1009A000ACEEB4EFA50194010E947905C60ED71EE6
:1009B000E81EF91EF7FE06C081E0C81AD108E1085A
:1009C00080E8F80AC882D982EA82FB82C701B601B0
:1009D0009F77DF91CF91FF90EF90DF90CF90BF9006
:1009E000AF909F908F9008958F929F92AF92BF92F9
:1009F000CF92DF92EF92FF9260910001709101011E
:100A000080910201909103016115710581059105A5
:100A100021F464E279ED8BE597E02DE133EF41E0DD
:100A200050E00E944C0549015A019B01AC01A7EA24
:100A3000B1E40E946B056B017C01ACEEB4EFA50143
:100A400094010E947905C60ED71EE81EF91EF7FE16
:100A500006C081E0C81AD108E10880E8F80AC0920F
:100A60000001D0920101E0920201F0920301C7015E
:100A7000B6019F77FF90EF90DF90CF90BF90AF903F
:100A80009F908F900895609300017093010180936F
:100A90000201909303010895052E97FB1EF4009424
:100AA0000E94630557FD07D00E947E0507FC03D016
:100AB0004EF40C94630550954095309521953F4F29
:100AC0004F4F5F4F089590958095709561957F4F3A
:100AD0008F4F9F4F08950E94A005A59F900DB49F32
:100AE000900DA49F800D911D11240895B7FF0C94C3
:100AF0006B050E946B05821B930B0895A1E21A2ED1
:100B0000AA1BBB1BFD010DC0AA1FBB1FEE1FFF1FB1
:100B1000A217B307E407F50720F0A21BB30BE40B01
:100B2000F50B661F771F881F991F1A9469F7609548
:100B30007095809590959B01AC01BD01CF01089502
:100B4000A29FB001B39FC001A39F700D811D11240E
:100B5000911DB29F700D811D1124911D0895EE0FFE
:0E0B6000FF1F0590F491E02D0994F894FFCF4B
:100B6E000100000000000000FF005F008C004C013F
:100B7E00BD009B00AF000D0A0020202000202D207C
:100B8E0000436F6E7761792047656E657261746997
:100B9E006F6E732100202B2000203D20002023208B
:060BAE00002040200000C1
:00000001FF
